S00C0000414D49542E73726563ED
S11300000C942A000C9483030C94B9030C944700B9
S11300100C9447000C9447000C9447000C94470040
S11300200C9447000C9447000C9436060C940D066F
S11300300C9447000C9447000C9447000C94470020
S11300400C9426040C9447000C9447000C9447002D
S11300500C94470011241FBECFE5D8E0DEBFCDBF0E
S113006010E0A0E6B0E0E2E8F0E102C005900D92F5
S1130070AC36B107D9F720E0ACE6B0E001C01D9280
S1130080A238B207E1F70E9478020C943F080C945E
S1130090000096B7906496BF92E090B991B19E7FAC
S11300A091B991B19D7F91B996B79F7796BF8823F7
S11300B011F0880F82B986B7846086BF089586B729
S11300C0806286BF86B7806886BF06B607FEFDCF0E
S11300D081B1887F883011F480E0089581E008952B
S11300E086B7806286BF86B7806886BF06B607FE7D
S11300F0FDCF81B1887F803111F480E0089582E0E2
S11301000895880F83B983B18E7F83B986B78F7DB5
S113011086BF86B7806886BF06B607FEFDCF81B16D
S1130120887F883111F480E0089583E00895880F72
S113013083B983B1816083B986B78F7D86BF86B763
S1130140806886BF06B607FEFDCF81B1887F803404
S113015011F480E0089584E0089583B986B7806837
S113016086BF06B607FEFDCF81B1887F883211F4C1
S113017080E0089585E00895FC0196B7906896BFE5
S113018006B607FEFDCF91B1987F903521F483B177
S1130190808380E0089586E0089586B7806186BFF5
S11301A086B7806886BF0895982F862F40E0692F10
S11301B00E9497040895CF93DF931F92CDB7DEB7C3
S11301C0982F862FAE014F5F5F4F692F0E948905DC
S11301D089810F90DF91CF9108951F93CF93DF937F
S11301E0D82FC62F192F10650E945F00812F0E94FF
S11301F081008D2F0E94AD008C2F0E94AD000E94C3
S1130200CD0083EC99E00197F1F700C00000DF9185
S1130210CF911F9108950F931F93CF93DF931F9254
S1130220CDB7DEB7082F192F10650E945F00812F0C
S11302300E948100802F0E94AD000E947000812FD7
S11302400E949700CE0101960E94BC000E94CD003E
S113025089810F90DF91CF911F910F910895CF93D2
S1130260C82F40E065E082E00E94100540E064E0B1
S113027082E00E9410056C2F81E00E94C10541E0DC
S113028063E082E00E94100583EF91E00197F1F7AB
S113029000C0000040E063E082E00E941005CF91BE
S11302A00895CF93C82F41E065E082E00E941005D5
S11302B040E064E082E00E9410056C2F81E00E941F
S11302C0C10541E063E082E00E94100583EF91E004
S11302D00197F1F700C0000040E063E082E00E9473
S11302E01005CF9108958FE097E20197F1F700C0D0
S11302F0000088E30E942F018CE00E942F0181E01E
S11303000E942F0108950F931F93CF938C01C0E097
S113031003C00E945101CF5FF801EC0FF11D8081F1
S11303208111F7CFCF911F910F910895611106C0EC
S1130330982F20E4629F900D112401C090E0613059
S113034029F4982F20E4629F900D112480E8890FEE
S11303500E942F01089541E060E081E00E9497042B
S113036041E061E081E00E94970441E062E081E0C5
S11303700E94970441E063E081E00E94970441E019
S113038064E081E00E94970441E065E081E00E941E
S1130390970441E066E081E00E94970441E067E051
S11303A081E00E94970441E063E082E00E949704A8
S11303B041E064E082E00E94970441E065E082E06D
S11303C00E949704089581E00E942F010895CF931D
S11303D0DF93CDB7DEB760970FB6F894DEBF0FBEDC
S11303E0CDBF4AE0BE016F5F7F4F0E940A08CE0175
S11303F001960E94830160960FB6F894DEBF0FBE8B
S1130400CDBFDF91CF910895982F862F41E0692FBA
S11304100E9497040895982F862F41E0692F0E9427
S113042010050895982F862F40E0692F0E9410052B
S11304300895CF93DF93C82FD62F0E940B022FE984
S113044086E891E0215080409040E1F700C0000030
S11304506D2F8C2F0E9412022FE986E891E0215023
S113046080409040E1F700C00000DF91CF910895F3
S1130470CF93DF9300D000D0CDB7DEB780916C006E
S11304808F5F80936C00813361F580E00E941604D5
S113049090E09C838B836B817C8180E090E00E9460
S11304A0000729E131E644E753E40E948E0720E087
S11304B030E040E451E40E945F060E94D1067A8352
S11304C0698329813A81ADECBCEC0E94FB079695C7
S11304D08795969587959695879580937000109249
S11304E06C000F900F900F900F90DF91CF910895B3
S11304F063E087E00E94D40063E080E00E9404028D
S113050063E081E00E9404020E94AB010E94730137
S113051080E00E9449006091610084E690E00E94BE
S1130520ED0087E690E00E940B0180936D000E942D
S113053003040E94D7050E94E4050E94D3050E948B
S1130540F10588E392E00E94030662E087E00E94DE
S1130550DB00811108C063E00E94120263E081E0C5
S11305600E941202F2CF62E087E00E94DB00813039
S113057061F763E00E940B020E94E30184E690E0CD
S11305800E9483018091700090E00E94E7014091F5
S11305907300411153C080916D008F3F09F04EC02C
S11305A050917000252F30E060916100862F90E01B
S11305B0FC013597E217F3072CF063E080E00E941A
S11305C01902C3CF0596821793072CF463E080E0E9
S11305D00E940B02BACF5613B8CF109272000DC00E
S11305E020916E0030916F00250F311D30936F0004
S11305F020936E008F5F80937200809172008A3026
S113060078F320916E0030916F00ADECBCEC0E9449
S1130610FB079695879596958795969587958093EC
S11306207100481392CF63E080E00E94120210929E
S11306306F0010926E001092710087CF80916D0050
S11306408F3F09F482CF61E080E00E94960184E646
S113065090E00E94830180916D0090E00E94E70188
S11306602091700030E08091730090E00597281786
S1130670390724F463E080E00E941902909170002D
S1130680692F70E040917300242F30E02B5F3F4FBF
S1130690261737072CF463E080E00E940B0255CF45
S11306A0941353CF109272000DC020916E003091BC
S11306B06F00290F311D30936F0020936E008F5F00
S11306C080937200809172008A3078F320916E00DA
S11306D030916F00ADECBCEC0E94FB0796958795BA
S11306E096958795969587958093710048132DCF9D
S11306F063E080E00E94120210926F0010926E007C
S11307001092710022CF1F920F920FB60F921124F4
S11307102F933F934F935F936F937F938F939F9305
S1130720AF93BF93EF93FF9363E670E080E690E0AE
S11307300E94EF03609160006093730087E690E08D
S11307400E94ED0087E690E00E940B0180936D000B
S1130750FF91EF91BF91AF919F918F917F916F9195
S11307605F914F913F912F910F900FBE0F901F906B
S113077018951F920F920FB60F9211242F933F9347
S11307804F935F936F937F938F939F93AF93BF9395
S1130790EF93FF9362E670E080E690E00E94F90335
S11307A0609160006093730087E690E00E94ED0022
S11307B087E690E00E940B0180936D00FF91EF911A
S11307C0BF91AF919F918F917F916F915F914F9165
S11307D03F912F910F900FBE0F901F901895FC0121
S11307E090819B5F9083DB018C91981708F0808344
S11307F00895FC01908195509083DB018C918917B9
S113080008F08083089587B1806487B987B18F77B2
S113081087B987B1806287B986B1887F86B986B186
S1130820836086B986B1806886B9089597B1907E51
S113083097B997B1892B87B986B1806486B9349BFF
S1130840FECF86B1806186B985B108951F920F925B
S11308500FB60F9211242F933F934F935F936F938F
S11308607F938F939F93AF93BF93EF93FF93809165
S11308708100811115C0E0917B00F0917C0085B16D
S113088090E09183808310927A0086B1877F86B945
S1130890E0917800F09179003097C1F1099536C064
S11308A080917500E82FF0E0EE0FFF1F20917B0090
S11308B030917C00E20FF31F25B130E031832083B7
S11308C08F5F809375009091740089130DC010920E
S11308D07A0086B1877F86B9E0917800F09179003B
S11308E03097A1F0099512C087B1807E87B997B17E
S11308F080917500E0917600F0917700E80FF11D8A
S11309008081892B87B986B1806486B9FF91EF9184
S1130910BF91AF919F918F917F916F915F914F9113
S11309203F912F910F900FBE0F901F901895683034
S113093008F075C0843008F072C04130B9F58130D8
S113094091F028F08230D9F0833029F12FC09AB386
S113095021E030E0062E02C0220F331F0A94E2F792
S1130960292B2ABB23C097B321E030E0062E02C016
S1130970220F331F0A94E2F7292B27BB17C094B325
S113098021E030E0062E02C0220F331F0A94E2F762
S1130990292B24BB0BC091B321E030E0062E02C00A
S11309A0220F331F0A94E2F7292B21BB411137C0D0
S11309B0813091F028F08230D9F0833029F1089504
S11309C02AB381E090E002C0880F991F6A95E2F78C
S11309D0809582238ABB089527B381E090E002C00A
S11309E0880F991F6A95E2F78095822387BB089543
S11309F024B381E090E002C0880F991F6A95E2F762
S1130A008095822384BB089521B381E090E002C0E5
S1130A10880F991F6A95E2F78095822381BB089518
S1130A20843008F075C0683008F072C041113BC0D2
S1130A30813099F028F08230E9F0833041F133C0FD
S1130A409BB321E030E0062E02C0220F331F0A942C
S1130A50E2F7209529232BBB26C098B321E030E090
S1130A60062E02C0220F331F0A94E2F72095292391
S1130A7028BB19C095B321E030E0062E02C0220F36
S1130A80331F0A94E2F72095292325BB0CC092B3A7
S1130A9021E030E0062E02C0220F331F0A94E2F751
S1130AA02095292322BB413099F5813089F028F023
S1130AB08230C9F0833011F108952BB381E090E0C6
S1130AC002C0880F991F6A95E2F7822B8BBB0895A9
S1130AD028B381E090E002C0880F991F6A95E2F77D
S1130AE0822B88BB089525B381E090E002C0880F73
S1130AF0991F6A95E2F7822B85BB089522B381E0A2
S1130B0090E002C0880F991F6A95E2F7822B82BB9E
S1130B1008958430A8F5683098F5813089F028F07C
S1130B208230C9F0833011F1089589B390E002C096
S1130B30959587956A95E2F78170FA018083089507
S1130B4086B390E002C0959587956A95E2F7817027
S1130B50FA018083089583B390E002C09595879548
S1130B606A95E2F78170FA018083089580B390E07A
S1130B7002C0959587956A95E2F78170FA018083A2
S1130B800895843078F4813041F028F0823039F0CF
S1130B90833039F008956BBB089568BB089565BB35
S1130BA0089562BB08958FB780688FBF089585B795
S1130BB0816085BF85B7826085BF8AB780648ABF3C
S1130BC08BB780648BBF089585B7846085BF85B774
S1130BD0886085BF8AB780688ABF8BB780688BBFFF
S1130BE0089583B78F7B83BF83B7877F83BF8CE2EE
S1130BF082BF89B7816089BF83B7887F83BF83B78A
S1130C00826083BF0895009731F0909380008093B1
S1130C107F0082E0089584E008951F920F920FB63A
S1130C200F9211242F933F934F935F936F937F936E
S1130C308F939F93AF93BF93EF93FF93E0917F00C4
S1130C40F0918000309709F00995FF91EF91BF91E1
S1130C50AF919F918F917F916F915F914F913F9150
S1130C602F910F900FBE0F901F9018951F920F9207
S1130C700FB60F9211242F933F934F935F936F936B
S1130C807F938F939F93AF93BF93EF93FF93E091E1
S1130C907D00F0917E00309709F00995FF91EF9166
S1130CA0BF91AF919F918F917F916F915F914F9180
S1130CB03F912F910F900FBE0F901F9018950E9497
S1130CC073060C9454070E944D0758F00E9446077F
S1130CD040F029F45F3F29F00C943D0751110C9426
S1130CE088070C9443070E94650768F39923B1F3BE
S1130CF0552391F3951B550BBB27AA27621773073E
S1130D00840738F09F5F5F4F220F331F441FAA1FD1
S1130D10A9F335D00E2E3AF0E0E832D0915050408D
S1130D20E695001CCAF72BD0FE2F29D0660F771F3B
S1130D30881FBB1F261737074807AB07B0E809F021
S1130D40BB0B802DBF01FF2793585F4F3AF09E3FA6
S1130D50510578F00C943D070C9488075F3FE4F349
S1130D60983ED4F3869577956795B795F7959F5FE9
S1130D70C9F7880F911D9695879597F90895E1E035
S1130D80660F771F881FBB1F621773078407BA0794
S1130D9020F0621B730B840BBA0BEE1F88F7E095EF
S1130DA008950E946D0788F09F5798F0B92F9927EE
S1130DB0B751B0F0E1F0660F771F881F991F1AF042
S1130DC0BA95C9F714C0B13091F00E948707B1E019
S1130DD008950C948707672F782F8827B85F39F018
S1130DE0B93FCCF3869577956795B395D9F73EF4DB
S1130DF090958095709561957F4F8F4F9F4F089583
S1130E00E89409C097FB3EF49095809570956195A0
S1130E107F4F8F4F9F4F9923A9F0F92F96E9BB2756
S1130E209395F695879577956795B795F111F8CFD2
S1130E30FAF4BB0F11F460FF1BC06F5F7F4F8F4F3D
S1130E409F4F16C0882311F096E911C0772321F033
S1130E509EE8872F762F05C0662371F096E8862FCB
S1130E6070E060E02AF09A95660F771F881FDAF722
S1130E70880F9695879597F9089597F99F6780E865
S1130E8070E060E008959FEF80EC089500240A94D8
S1130E901616170618060906089500240A94121651
S1130EA01306140605060895092E0394000C11F484
S1130EB0882352F0BB0F40F4BF2B11F460FF04C031
S1130EC06F5F7F4F8F4F9F4F089557FD9058440F8A
S1130ED0551F59F05F3F71F04795880F97FB991F95
S1130EE061F09F3F79F08795089512161306140652
S1130EF0551FF2CF4695F1DF08C0161617061806DF
S1130F00991FF1CF86957105610508940895E894B9
S1130F10BB2766277727CB0197F908950E94A1077D
S1130F200C9454070E94460738F00E944D0720F0A5
S1130F30952311F00C943D070C94430711240C9451
S1130F4088070E94650770F3959FC1F3950F50E0E1
S1130F50551F629FF001729FBB27F00DB11D639F67
S1130F60AA27F00DB11DAA1F649F6627B00DA11D0D
S1130F70661F829F2227B00DA11D621F739FB00DB3
S1130F80A11D621F839FA00D611D221F749F332723
S1130F90A00D611D231F849F600D211D822F762FBC
S1130FA06A2F11249F5750409AF0F1F088234AF099
S1130FB0EE0FFF1FBB1F661F771F881F9150504005
S1130FC0A9F79E3F510580F00C943D070C948807C7
S1130FD05F3FE4F3983ED4F3869577956795B7958C
S1130FE0F795E7959F5FC1F7FE2B880F911D9695A6
S1130FF0879597F90895A29FB001B39FC001A39F5D
S1131000700D811D1124911DB29F700D811D11243D
S1131010911D0895BB274A3031F4992322F4BDE28F
S1131020909581959F4F0C941608BB27FB0155277B
S1131030AA27880F991FAA1FA41710F0A41B839531
S11310405051B9F7A05DAA3308F0A95DA1930097A8
S113105079F7B111B1931192CB010C942F08DC01F3
S1131060FC01672F71917723E1F7329704C07C91DB
S11310706D9370836291AE17BF07C8F30895F89417
S1051080FFCF9C
S10F10821E3B234B74656D703A20000087
S9030000FC
